{
  "contractName": "MerkleWrapper",
  "abi": [
    {
      "constant": true,
      "inputs": [
        {
          "name": "leaf",
          "type": "bytes32"
        },
        {
          "name": "index",
          "type": "uint256"
        },
        {
          "name": "rootHash",
          "type": "bytes32"
        },
        {
          "name": "proof",
          "type": "bytes"
        },
        {
          "name": "height",
          "type": "uint256"
        }
      ],
      "name": "checkMembership",
      "outputs": [
        {
          "name": "",
          "type": "bool"
        }
      ],
      "payable": false,
      "stateMutability": "pure",
      "type": "function"
    }
  ],
  "bytecode": "0x608060405234801561001057600080fd5b50610434806100206000396000f3fe608060405260043610610041576000357c0100000000000000000000000000000000000000000000000000000000900463ffffffff16806367c04f5014610046575b600080fd5b34801561005257600080fd5b50610134600480360360a081101561006957600080fd5b81019080803590602001909291908035906020019092919080359060200190929190803590602001906401000000008111156100a457600080fd5b8201836020820111156100b657600080fd5b803590602001918460018302840111640100000000831117156100d857600080fd5b91908080601f016020809104026020016040519081016040528093929190818152602001838380828437600081840152601f19601f8201169050808301925050505050505091929192908035906020019092919050505061014e565b604051808215151515815260200191505060405180910390f35b600061015d8686868686610168565b905095945050505050565b600060208202835114151561020b576040517f08c379a000000000000000000000000000000000000000000000000000000000815260040180806020018281038252602f8152602001807f50726f6f66206c656e67746820646f6573206e6f74206167726565207769746881526020017f2068656967682070726f7669646564000000000000000000000000000000000081525060400191505060405180910390fd5b60008087905060008790506000602090505b60208602811115156103f657808701519350600060028381151561023d57fe5b061415610312576002838560405160200180838152602001828152602001925050506040516020818303038152906040526040518082805190602001908083835b6020831015156102a3578051825260208201915060208101905060208303925061027e565b6001836020036101000a038019825116818451168082178552505050505050905001915050602060405180830381855afa1580156102e5573d6000803e3d6000fd5b5050506040513d60208110156102fa57600080fd5b810190808051906020019092919050505092506103dc565b6002848460405160200180838152602001828152602001925050506040516020818303038152906040526040518082805190602001908083835b602083101515610371578051825260208201915060208101905060208303925061034c565b6001836020036101000a038019825116818451168082178552505050505050905001915050602060405180830381855afa1580156103b3573d6000803e3d6000fd5b5050506040513d60208110156103c857600080fd5b810190808051906020019092919050505092505b6002828115156103e857fe5b04915060208101905061021d565b5086821493505050509594505050505056fea165627a7a72305820788a6199e51437f5432880e0c1ea268e95aa780ee7bb95b0c1f2cd21869b86f20029",
  "source": "pragma solidity ^0.5.0;\n\nimport \"../Merkle.sol\";\n\n\ncontract MerkleWrapper {\n    \n    function checkMembership(\n        bytes32 leaf, \n        uint256 index, \n        bytes32 rootHash, \n        bytes memory proof, \n        uint height\n    )\n        public\n        pure\n        returns (bool)\n    {\n        return Merkle.checkMembership(leaf, index, rootHash, proof, height);\n    }\n}",
  "sourcePath": "/home/josojo/gnosis/dex-contracts/contracts/wrapppers/MerkleWrapper.sol",
  "compiler": {
    "name": "solc",
    "version": "0.5.0+commit.1d4f565a.Emscripten.clang"
  },
  "schemaVersion": "3.0.1",
  "updatedAt": "2019-01-30T21:18:38.352Z",
  "devdoc": {
    "methods": {}
  },
  "userdoc": {
    "methods": {}
  }
}