{
  "contractName": "SnappBase",
  "abi": [
    {
      "constant": true,
      "inputs": [],
      "name": "withdrawIndex",
      "outputs": [
        {
          "name": "",
          "type": "uint256"
        }
      ],
      "payable": false,
      "stateMutability": "view",
      "type": "function",
      "signature": "0x0e5ef41a"
    },
    {
      "constant": true,
      "inputs": [
        {
          "name": "",
          "type": "uint8"
        }
      ],
      "name": "tokenIdToAddressMap",
      "outputs": [
        {
          "name": "",
          "type": "address"
        }
      ],
      "payable": false,
      "stateMutability": "view",
      "type": "function",
      "signature": "0x497024c2"
    },
    {
      "constant": true,
      "inputs": [
        {
          "name": "",
          "type": "uint256"
        }
      ],
      "name": "pendingWithdraws",
      "outputs": [
        {
          "name": "size",
          "type": "uint16"
        },
        {
          "name": "shaHash",
          "type": "bytes32"
        },
        {
          "name": "creationBlock",
          "type": "uint256"
        },
        {
          "name": "appliedAccountStateIndex",
          "type": "uint256"
        }
      ],
      "payable": false,
      "stateMutability": "view",
      "type": "function",
      "signature": "0x63cbb2c4"
    },
    {
      "constant": false,
      "inputs": [],
      "name": "renounceOwnership",
      "outputs": [],
      "payable": false,
      "stateMutability": "nonpayable",
      "type": "function",
      "signature": "0x715018a6"
    },
    {
      "constant": true,
      "inputs": [],
      "name": "MAX_DEPOSIT_BATCH",
      "outputs": [
        {
          "name": "",
          "type": "uint16"
        }
      ],
      "payable": false,
      "stateMutability": "view",
      "type": "function",
      "signature": "0x7b48090e"
    },
    {
      "constant": true,
      "inputs": [],
      "name": "depositIndex",
      "outputs": [
        {
          "name": "",
          "type": "uint256"
        }
      ],
      "payable": false,
      "stateMutability": "view",
      "type": "function",
      "signature": "0x7b898939"
    },
    {
      "constant": true,
      "inputs": [],
      "name": "MAX_ACCOUNT_ID",
      "outputs": [
        {
          "name": "",
          "type": "uint16"
        }
      ],
      "payable": false,
      "stateMutability": "view",
      "type": "function",
      "signature": "0x80d839b1"
    },
    {
      "constant": true,
      "inputs": [
        {
          "name": "",
          "type": "uint16"
        }
      ],
      "name": "accountToPublicKeyMap",
      "outputs": [
        {
          "name": "",
          "type": "address"
        }
      ],
      "payable": false,
      "stateMutability": "view",
      "type": "function",
      "signature": "0x89a72497"
    },
    {
      "constant": true,
      "inputs": [],
      "name": "owner",
      "outputs": [
        {
          "name": "",
          "type": "address"
        }
      ],
      "payable": false,
      "stateMutability": "view",
      "type": "function",
      "signature": "0x8da5cb5b"
    },
    {
      "constant": true,
      "inputs": [],
      "name": "numTokens",
      "outputs": [
        {
          "name": "",
          "type": "uint8"
        }
      ],
      "payable": false,
      "stateMutability": "view",
      "type": "function",
      "signature": "0x8e499bcf"
    },
    {
      "constant": true,
      "inputs": [],
      "name": "isOwner",
      "outputs": [
        {
          "name": "",
          "type": "bool"
        }
      ],
      "payable": false,
      "stateMutability": "view",
      "type": "function",
      "signature": "0x8f32d59b"
    },
    {
      "constant": true,
      "inputs": [
        {
          "name": "",
          "type": "address"
        }
      ],
      "name": "tokenAddresToIdMap",
      "outputs": [
        {
          "name": "",
          "type": "uint8"
        }
      ],
      "payable": false,
      "stateMutability": "view",
      "type": "function",
      "signature": "0x9067d7b4"
    },
    {
      "constant": true,
      "inputs": [
        {
          "name": "",
          "type": "address"
        }
      ],
      "name": "publicKeyToAccountMap",
      "outputs": [
        {
          "name": "",
          "type": "uint16"
        }
      ],
      "payable": false,
      "stateMutability": "view",
      "type": "function",
      "signature": "0x93066f93"
    },
    {
      "constant": true,
      "inputs": [],
      "name": "MAX_WITHDRAW_BATCH",
      "outputs": [
        {
          "name": "",
          "type": "uint16"
        }
      ],
      "payable": false,
      "stateMutability": "view",
      "type": "function",
      "signature": "0x99c4335d"
    },
    {
      "constant": true,
      "inputs": [
        {
          "name": "",
          "type": "uint256"
        }
      ],
      "name": "deposits",
      "outputs": [
        {
          "name": "size",
          "type": "uint16"
        },
        {
          "name": "shaHash",
          "type": "bytes32"
        },
        {
          "name": "creationBlock",
          "type": "uint256"
        },
        {
          "name": "appliedAccountStateIndex",
          "type": "uint256"
        }
      ],
      "payable": false,
      "stateMutability": "view",
      "type": "function",
      "signature": "0xb02c43d0"
    },
    {
      "constant": true,
      "inputs": [
        {
          "name": "",
          "type": "uint256"
        }
      ],
      "name": "claimableWithdraws",
      "outputs": [
        {
          "name": "merkleRoot",
          "type": "bytes32"
        },
        {
          "name": "appliedAccountStateIndex",
          "type": "uint256"
        }
      ],
      "payable": false,
      "stateMutability": "view",
      "type": "function",
      "signature": "0xb652888d"
    },
    {
      "constant": false,
      "inputs": [
        {
          "name": "newOwner",
          "type": "address"
        }
      ],
      "name": "transferOwnership",
      "outputs": [],
      "payable": false,
      "stateMutability": "nonpayable",
      "type": "function",
      "signature": "0xf2fde38b"
    },
    {
      "constant": true,
      "inputs": [],
      "name": "MAX_TOKENS",
      "outputs": [
        {
          "name": "",
          "type": "uint8"
        }
      ],
      "payable": false,
      "stateMutability": "view",
      "type": "function",
      "signature": "0xf47c84c5"
    },
    {
      "constant": true,
      "inputs": [
        {
          "name": "",
          "type": "uint256"
        }
      ],
      "name": "stateRoots",
      "outputs": [
        {
          "name": "",
          "type": "bytes32"
        }
      ],
      "payable": false,
      "stateMutability": "view",
      "type": "function",
      "signature": "0xf4cac30d"
    },
    {
      "inputs": [],
      "payable": false,
      "stateMutability": "nonpayable",
      "type": "constructor",
      "signature": "constructor"
    },
    {
      "anonymous": false,
      "inputs": [
        {
          "indexed": false,
          "name": "accountId",
          "type": "uint16"
        },
        {
          "indexed": false,
          "name": "tokenId",
          "type": "uint8"
        },
        {
          "indexed": false,
          "name": "amount",
          "type": "uint128"
        },
        {
          "indexed": false,
          "name": "slot",
          "type": "uint256"
        },
        {
          "indexed": false,
          "name": "slotIndex",
          "type": "uint16"
        }
      ],
      "name": "WithdrawRequest",
      "type": "event",
      "signature": "0xc1d795e2c9e878c51f00b6ed030b242f37102e68a23abef79414d4f8e74dabc3"
    },
    {
      "anonymous": false,
      "inputs": [
        {
          "indexed": false,
          "name": "accountId",
          "type": "uint16"
        },
        {
          "indexed": false,
          "name": "tokenId",
          "type": "uint8"
        },
        {
          "indexed": false,
          "name": "amount",
          "type": "uint128"
        },
        {
          "indexed": false,
          "name": "slot",
          "type": "uint256"
        },
        {
          "indexed": false,
          "name": "slotIndex",
          "type": "uint16"
        }
      ],
      "name": "Deposit",
      "type": "event",
      "signature": "0xba69dd2add777eec12c151e5c3564aea39f88ae032db1996d218f0cace2f11ee"
    },
    {
      "anonymous": false,
      "inputs": [
        {
          "indexed": false,
          "name": "transitionType",
          "type": "uint8"
        },
        {
          "indexed": false,
          "name": "stateIndex",
          "type": "uint256"
        },
        {
          "indexed": false,
          "name": "stateHash",
          "type": "bytes32"
        },
        {
          "indexed": false,
          "name": "slot",
          "type": "uint256"
        }
      ],
      "name": "StateTransition",
      "type": "event",
      "signature": "0x3226fdc3b71ca91a95959d6392681cb982b51fc63db71eafc2ad3753edff7f84"
    },
    {
      "anonymous": false,
      "inputs": [
        {
          "indexed": false,
          "name": "stateHash",
          "type": "bytes32"
        },
        {
          "indexed": false,
          "name": "maxTokens",
          "type": "uint8"
        },
        {
          "indexed": false,
          "name": "maxAccounts",
          "type": "uint16"
        }
      ],
      "name": "SnappInitialization",
      "type": "event",
      "signature": "0xe1da8c47dc4fbd0eefa87251c4c509097a6a709606f6e53831712771e174afdb"
    },
    {
      "anonymous": false,
      "inputs": [
        {
          "indexed": true,
          "name": "previousOwner",
          "type": "address"
        },
        {
          "indexed": true,
          "name": "newOwner",
          "type": "address"
        }
      ],
      "name": "OwnershipTransferred",
      "type": "event",
      "signature": "0x8be0079c531659141344cd1fd0a4f28419497f9722a3daafe3b4186f6b6457e0"
    },
    {
      "constant": true,
      "inputs": [],
      "name": "stateIndex",
      "outputs": [
        {
          "name": "",
          "type": "uint256"
        }
      ],
      "payable": false,
      "stateMutability": "view",
      "type": "function",
      "signature": "0x6a2e4b2e"
    },
    {
      "constant": true,
      "inputs": [
        {
          "name": "index",
          "type": "uint256"
        }
      ],
      "name": "hasDepositBeenApplied",
      "outputs": [
        {
          "name": "",
          "type": "bool"
        }
      ],
      "payable": false,
      "stateMutability": "view",
      "type": "function",
      "signature": "0x8b8e3c8b"
    },
    {
      "constant": true,
      "inputs": [
        {
          "name": "index",
          "type": "uint256"
        }
      ],
      "name": "isDepositSlotEmpty",
      "outputs": [
        {
          "name": "",
          "type": "bool"
        }
      ],
      "payable": false,
      "stateMutability": "view",
      "type": "function",
      "signature": "0x4383af5b"
    },
    {
      "constant": true,
      "inputs": [],
      "name": "getCurrentStateRoot",
      "outputs": [
        {
          "name": "",
          "type": "bytes32"
        }
      ],
      "payable": false,
      "stateMutability": "view",
      "type": "function",
      "signature": "0x974af738"
    },
    {
      "constant": false,
      "inputs": [
        {
          "name": "accountId",
          "type": "uint16"
        }
      ],
      "name": "openAccount",
      "outputs": [],
      "payable": false,
      "stateMutability": "nonpayable",
      "type": "function",
      "signature": "0xa67e02ee"
    },
    {
      "constant": false,
      "inputs": [
        {
          "name": "_tokenAddress",
          "type": "address"
        }
      ],
      "name": "addToken",
      "outputs": [],
      "payable": false,
      "stateMutability": "nonpayable",
      "type": "function",
      "signature": "0xd48bfca7"
    },
    {
      "constant": false,
      "inputs": [
        {
          "name": "tokenId",
          "type": "uint8"
        },
        {
          "name": "amount",
          "type": "uint128"
        }
      ],
      "name": "deposit",
      "outputs": [],
      "payable": false,
      "stateMutability": "nonpayable",
      "type": "function",
      "signature": "0x5a8ff5a8"
    },
    {
      "constant": false,
      "inputs": [
        {
          "name": "slot",
          "type": "uint256"
        },
        {
          "name": "_currStateRoot",
          "type": "bytes32"
        },
        {
          "name": "_newStateRoot",
          "type": "bytes32"
        },
        {
          "name": "_depositHash",
          "type": "bytes32"
        }
      ],
      "name": "applyDeposits",
      "outputs": [],
      "payable": false,
      "stateMutability": "nonpayable",
      "type": "function",
      "signature": "0x8a9ffe22"
    },
    {
      "constant": false,
      "inputs": [
        {
          "name": "tokenId",
          "type": "uint8"
        },
        {
          "name": "amount",
          "type": "uint128"
        }
      ],
      "name": "requestWithdrawal",
      "outputs": [],
      "payable": false,
      "stateMutability": "nonpayable",
      "type": "function",
      "signature": "0x154b5386"
    },
    {
      "constant": false,
      "inputs": [
        {
          "name": "slot",
          "type": "uint256"
        },
        {
          "name": "includedBitMap",
          "type": "bool[100]"
        },
        {
          "name": "_merkleRoot",
          "type": "bytes32"
        },
        {
          "name": "_currStateRoot",
          "type": "bytes32"
        },
        {
          "name": "_newStateRoot",
          "type": "bytes32"
        },
        {
          "name": "_withdrawHash",
          "type": "bytes32"
        }
      ],
      "name": "applyWithdrawals",
      "outputs": [],
      "payable": false,
      "stateMutability": "nonpayable",
      "type": "function",
      "signature": "0xcea53418"
    },
    {
      "constant": false,
      "inputs": [
        {
          "name": "withdrawSlot",
          "type": "uint256"
        },
        {
          "name": "inclusionIndex",
          "type": "uint16"
        },
        {
          "name": "accountId",
          "type": "uint16"
        },
        {
          "name": "tokenId",
          "type": "uint8"
        },
        {
          "name": "amount",
          "type": "uint128"
        },
        {
          "name": "proof",
          "type": "bytes"
        }
      ],
      "name": "claimWithdrawal",
      "outputs": [],
      "payable": false,
      "stateMutability": "nonpayable",
      "type": "function",
      "signature": "0x94c195b4"
    },
    {
      "constant": true,
      "inputs": [
        {
          "name": "slot",
          "type": "uint256"
        }
      ],
      "name": "getDepositCreationBlock",
      "outputs": [
        {
          "name": "",
          "type": "uint256"
        }
      ],
      "payable": false,
      "stateMutability": "view",
      "type": "function",
      "signature": "0x6c8629c0"
    },
    {
      "constant": true,
      "inputs": [
        {
          "name": "slot",
          "type": "uint256"
        }
      ],
      "name": "getDepositHash",
      "outputs": [
        {
          "name": "",
          "type": "bytes32"
        }
      ],
      "payable": false,
      "stateMutability": "view",
      "type": "function",
      "signature": "0xe880696a"
    }
  ],
  "bytecode": "0x608060405234801561001057600080fd5b50336000806101000a81548173ffffffffffffffffffffffffffffffffffffffff021916908373ffffffffffffffffffffffffffffffffffffffff1602179055506000809054906101000a900473ffffffffffffffffffffffffffffffffffffffff1673ffffffffffffffffffffffffffffffffffffffff16600073ffffffffffffffffffffffffffffffffffffffff167f8be0079c531659141344cd1fd0a4f28419497f9722a3daafe3b4186f6b6457e060405160405180910390a360008060010290506001819080600181540180825580915050906001820390600052602060002001600090919290919091505550436008600060075481526020019081526020016000206002018190555043600a60006009548152602001908152602001600020600201819055507fe1da8c47dc4fbd0eefa87251c4c509097a6a709606f6e53831712771e174afdb81601e6064604051808481526020018360ff1660ff1681526020018261ffff1661ffff168152602001935050505060405180910390a1506138d6806101a26000396000f3fe608060405260043610610196576000357c0100000000000000000000000000000000000000000000000000000000900463ffffffff1680630e5ef41a1461019b578063154b5386146101c65780634383af5b14610220578063497024c2146102735780635a8ff5a8146102f157806363cbb2c41461034b5780636a2e4b2e146103b75780636c8629c0146103e2578063715018a6146104315780637b48090e146104485780637b8989391461047b57806380d839b1146104a657806389a72497146104d95780638a9ffe22146105585780638b8e3c8b146105b15780638da5cb5b146106045780638e499bcf1461065b5780638f32d59b1461068c5780639067d7b4146106bb57806393066f931461072657806394c195b414610793578063974af738146108aa57806399c4335d146108d5578063a67e02ee14610908578063b02c43d014610947578063b652888d146109b3578063cea5341814610a09578063d48bfca714610aaf578063e880696a14610b00578063f2fde38b14610b4f578063f47c84c514610ba0578063f4cac30d14610bd1575b600080fd5b3480156101a757600080fd5b506101b0610c20565b6040518082815260200191505060405180910390f35b3480156101d257600080fd5b5061021e600480360360408110156101e957600080fd5b81019080803560ff16906020019092919080356fffffffffffffffffffffffffffffffff169060200190929190505050610c26565b005b34801561022c57600080fd5b506102596004803603602081101561024357600080fd5b81019080803590602001909291905050506113f0565b604051808215151515815260200191505060405180910390f35b34801561027f57600080fd5b506102af6004803603602081101561029657600080fd5b81019080803560ff169060200190929190505050611415565b604051808273ffffffffffffffffffffffffffffffffffffffff1673ffffffffffffffffffffffffffffffffffffffff16815260200191505060405180910390f35b3480156102fd57600080fd5b506103496004803603604081101561031457600080fd5b81019080803560ff16906020019092919080356fffffffffffffffffffffffffffffffff169060200190929190505050611448565b005b34801561035757600080fd5b506103846004803603602081101561036e57600080fd5b8101908080359060200190929190505050611c27565b604051808561ffff1661ffff16815260200184815260200183815260200182815260200194505050505060405180910390f35b3480156103c357600080fd5b506103cc611c65565b6040518082815260200191505060405180910390f35b3480156103ee57600080fd5b5061041b6004803603602081101561040557600080fd5b8101908080359060200190929190505050611c74565b6040518082815260200191505060405180910390f35b34801561043d57600080fd5b50610446611c94565b005b34801561045457600080fd5b5061045d611d66565b604051808261ffff1661ffff16815260200191505060405180910390f35b34801561048757600080fd5b50610490611d6b565b6040518082815260200191505060405180910390f35b3480156104b257600080fd5b506104bb611d71565b604051808261ffff1661ffff16815260200191505060405180910390f35b3480156104e557600080fd5b50610516600480360360208110156104fc57600080fd5b81019080803561ffff169060200190929190505050611d76565b604051808273ffffffffffffffffffffffffffffffffffffffff1673ffffffffffffffffffffffffffffffffffffffff16815260200191505060405180910390f35b34801561056457600080fd5b506105af6004803603608081101561057b57600080fd5b8101908080359060200190929190803590602001909291908035906020019092919080359060200190929190505050611da9565b005b3480156105bd57600080fd5b506105ea600480360360208110156105d457600080fd5b8101908080359060200190929190505050612240565b604051808215151515815260200191505060405180910390f35b34801561061057600080fd5b50610619612263565b604051808273ffffffffffffffffffffffffffffffffffffffff1673ffffffffffffffffffffffffffffffffffffffff16815260200191505060405180910390f35b34801561066757600080fd5b5061067061228c565b604051808260ff1660ff16815260200191505060405180910390f35b34801561069857600080fd5b506106a161229f565b604051808215151515815260200191505060405180910390f35b3480156106c757600080fd5b5061070a600480360360208110156106de57600080fd5b81019080803573ffffffffffffffffffffffffffffffffffffffff1690602001909291905050506122f6565b604051808260ff1660ff16815260200191505060405180910390f35b34801561073257600080fd5b506107756004803603602081101561074957600080fd5b81019080803573ffffffffffffffffffffffffffffffffffffffff169060200190929190505050612316565b604051808261ffff1661ffff16815260200191505060405180910390f35b34801561079f57600080fd5b506108a8600480360360c08110156107b657600080fd5b8101908080359060200190929190803561ffff169060200190929190803561ffff169060200190929190803560ff16906020019092919080356fffffffffffffffffffffffffffffffff1690602001909291908035906020019064010000000081111561082257600080fd5b82018360208201111561083457600080fd5b8035906020019184600183028401116401000000008311171561085657600080fd5b91908080601f016020809104026020016040519081016040528093929190818152602001838380828437600081840152601f19601f820116905080830192505050505050509192919290505050612337565b005b3480156108b657600080fd5b506108bf612882565b6040518082815260200191505060405180910390f35b3480156108e157600080fd5b506108ea6128aa565b604051808261ffff1661ffff16815260200191505060405180910390f35b34801561091457600080fd5b506109456004803603602081101561092b57600080fd5b81019080803561ffff1690602001909291905050506128af565b005b34801561095357600080fd5b506109806004803603602081101561096a57600080fd5b8101908080359060200190929190505050612c0c565b604051808561ffff1661ffff16815260200184815260200183815260200182815260200194505050505060405180910390f35b3480156109bf57600080fd5b506109ec600480360360208110156109d657600080fd5b8101908080359060200190929190505050612c4a565b604051808381526020018281526020019250505060405180910390f35b348015610a1557600080fd5b50610aad6004803603610d20811015610a2d57600080fd5b810190808035906020019092919080610c8001906064806020026040519081016040528092919082606460200280828437600081840152601f19601f820116905080830192505050505050919291929080359060200190929190803590602001909291908035906020019092919080359060200190929190505050612c6e565b005b348015610abb57600080fd5b50610afe60048036036020811015610ad257600080fd5b81019080803573ffffffffffffffffffffffffffffffffffffffff16906020019092919050505061316c565b005b348015610b0c57600080fd5b50610b3960048036036020811015610b2357600080fd5b81019080803590602001909291905050506133e0565b6040518082815260200191505060405180910390f35b348015610b5b57600080fd5b50610b9e60048036036020811015610b7257600080fd5b81019080803573ffffffffffffffffffffffffffffffffffffffff169060200190929190505050613400565b005b348015610bac57600080fd5b50610bb561341f565b604051808260ff1660ff16815260200191505060405180910390f35b348015610bdd57600080fd5b50610c0a60048036036020811015610bf457600080fd5b8101908080359060200190929190505050613424565b6040518082815260200191505060405180910390f35b60095481565b6000600260003373ffffffffffffffffffffffffffffffffffffffff1673ffffffffffffffffffffffffffffffffffffffff16815260200190815260200160002060009054906101000a900461ffff1661ffff1614151515610cf0576040517f08c379a000000000000000000000000000000000000000000000000000000000815260040180806020018281038252601c8152602001807f4d75737420686176652072656769737465726564206163636f756e740000000081525060200191505060405180910390fd5b6000816fffffffffffffffffffffffffffffffff1614151515610d7b576040517f08c379a000000000000000000000000000000000000000000000000000000000815260040180806020018281038252601c8152602001807f4d757374207265717565737420706f73697469766520616d6f756e740000000081525060200191505060405180910390fd5b6000600660008460ff1660ff16815260200190815260200160002060009054906101000a900473ffffffffffffffffffffffffffffffffffffffff169050600073ffffffffffffffffffffffffffffffffffffffff168173ffffffffffffffffffffffffffffffffffffffff1614151515610e84576040517f08c379a00000000000000000000000000000000000000000000000000000000081526004018080602001828103825260218152602001807f52657175657374656420746f6b656e206973206e6f742072656769737465726581526020017f640000000000000000000000000000000000000000000000000000000000000081525060400191505060405180910390fd5b816fffffffffffffffffffffffffffffffff168173ffffffffffffffffffffffffffffffffffffffff166370a08231306040518263ffffffff167c0100000000000000000000000000000000000000000000000000000000028152600401808273ffffffffffffffffffffffffffffffffffffffff1673ffffffffffffffffffffffffffffffffffffffff16815260200191505060206040518083038186803b158015610f3057600080fd5b505afa158015610f44573d6000803e3d6000fd5b505050506040513d6020811015610f5a57600080fd5b810190808051906020019092919050505010151515611007576040517f08c379a000000000000000000000000000000000000000000000000000000000815260040180806020018281038252602b8152602001807f52657175657374656420616d6f756e74206578636565647320636f6e7472616381526020017f7427732062616c616e636500000000000000000000000000000000000000000081525060400191505060405180910390fd5b606461ffff16600a6000600954815260200190815260200160002060000160009054906101000a900461ffff1661ffff16148061105e57506014600a60006009548152602001908152602001600020600201540143115b156110fb57600960008154809291906001019190505550608060405190810160405280600061ffff168152602001600060010281526020014381526020016000815250600a6000600954815260200190815260200160002060008201518160000160006101000a81548161ffff021916908361ffff1602179055506020820151816001015560408201518160020155606082015181600301559050505b6000600260003373ffffffffffffffffffffffffffffffffffffffff1673ffffffffffffffffffffffffffffffffffffffff16815260200190815260200160002060009054906101000a900461ffff16905060006002600a6000600954815260200190815260200160002060010154838787604051602001808581526020018461ffff1661ffff167e010000000000000000000000000000000000000000000000000000000000000281526002018360ff1660ff167f0100000000000000000000000000000000000000000000000000000000000000028152600101826fffffffffffffffffffffffffffffffff166fffffffffffffffffffffffffffffffff167001000000000000000000000000000000000281526010019450505050506040516020818303038152906040526040518082805190602001908083835b60208310151561125e5780518252602082019150602081019050602083039250611239565b6001836020036101000a038019825116818451168082178552505050505050905001915050602060405180830381855afa1580156112a0573d6000803e3d6000fd5b5050506040513d60208110156112b557600080fd5b8101908080519060200190929190505050905080600a60006009548152602001908152602001600020600101819055507fc1d795e2c9e878c51f00b6ed030b242f37102e68a23abef79414d4f8e74dabc3828686600954600a6000600954815260200190815260200160002060000160009054906101000a900461ffff16604051808661ffff1661ffff1681526020018560ff1660ff168152602001846fffffffffffffffffffffffffffffffff166fffffffffffffffffffffffffffffffff1681526020018381526020018261ffff1661ffff1681526020019550505050505060405180910390a1600a60006009548152602001908152602001600020600001600081819054906101000a900461ffff168092919060010191906101000a81548161ffff021916908361ffff160217905550505050505050565b6000806001026008600084815260200190815260200160002060010154149050919050565b60066020528060005260406000206000915054906101000a900473ffffffffffffffffffffffffffffffffffffffff1681565b6000600260003373ffffffffffffffffffffffffffffffffffffffff1673ffffffffffffffffffffffffffffffffffffffff16815260200190815260200160002060009054906101000a900461ffff1661ffff1614151515611512576040517f08c379a000000000000000000000000000000000000000000000000000000000815260040180806020018281038252601c8152602001807f4d75737420686176652072656769737465726564206163636f756e740000000081525060200191505060405180910390fd5b6000816fffffffffffffffffffffffffffffffff161415151561159d576040517f08c379a000000000000000000000000000000000000000000000000000000000815260040180806020018281038252601c8152602001807f4d757374206465706f73697420706f73697469766520616d6f756e740000000081525060200191505060405180910390fd5b6000600660008460ff1660ff16815260200190815260200160002060009054906101000a900473ffffffffffffffffffffffffffffffffffffffff169050600073ffffffffffffffffffffffffffffffffffffffff168173ffffffffffffffffffffffffffffffffffffffff16141515156116a6576040517f08c379a00000000000000000000000000000000000000000000000000000000081526004018080602001828103825260218152602001807f52657175657374656420746f6b656e206973206e6f742072656769737465726581526020017f640000000000000000000000000000000000000000000000000000000000000081525060400191505060405180910390fd5b8073ffffffffffffffffffffffffffffffffffffffff166323b872dd3330856040518463ffffffff167c0100000000000000000000000000000000000000000000000000000000028152600401808473ffffffffffffffffffffffffffffffffffffffff1673ffffffffffffffffffffffffffffffffffffffff1681526020018373ffffffffffffffffffffffffffffffffffffffff1673ffffffffffffffffffffffffffffffffffffffff168152602001826fffffffffffffffffffffffffffffffff1681526020019350505050602060405180830381600087803b15801561178f57600080fd5b505af11580156117a3573d6000803e3d6000fd5b505050506040513d60208110156117b957600080fd5b8101908080519060200190929190505050151561183e576040517f08c379a00000000000000000000000000000000000000000000000000000000081526004018080602001828103825260158152602001807f556e7375636365737366756c207472616e73666572000000000000000000000081525060200191505060405180910390fd5b606461ffff1660086000600754815260200190815260200160002060000160009054906101000a900461ffff1661ffff16148061189557506014600860006007548152602001908152602001600020600201540143115b1561193257600760008154809291906001019190505550608060405190810160405280600061ffff16815260200160006001028152602001438152602001600081525060086000600754815260200190815260200160002060008201518160000160006101000a81548161ffff021916908361ffff1602179055506020820151816001015560408201518160020155606082015181600301559050505b6000600260003373ffffffffffffffffffffffffffffffffffffffff1673ffffffffffffffffffffffffffffffffffffffff16815260200190815260200160002060009054906101000a900461ffff1690506000600260086000600754815260200190815260200160002060010154838787604051602001808581526020018461ffff1661ffff167e010000000000000000000000000000000000000000000000000000000000000281526002018360ff1660ff167f0100000000000000000000000000000000000000000000000000000000000000028152600101826fffffffffffffffffffffffffffffffff166fffffffffffffffffffffffffffffffff167001000000000000000000000000000000000281526010019450505050506040516020818303038152906040526040518082805190602001908083835b602083101515611a955780518252602082019150602081019050602083039250611a70565b6001836020036101000a038019825116818451168082178552505050505050905001915050602060405180830381855afa158015611ad7573d6000803e3d6000fd5b5050506040513d6020811015611aec57600080fd5b8101908080519060200190929190505050905080600860006007548152602001908152602001600020600101819055507fba69dd2add777eec12c151e5c3564aea39f88ae032db1996d218f0cace2f11ee82868660075460086000600754815260200190815260200160002060000160009054906101000a900461ffff16604051808661ffff1661ffff1681526020018560ff1660ff168152602001846fffffffffffffffffffffffffffffffff166fffffffffffffffffffffffffffffffff1681526020018381526020018261ffff1661ffff1681526020019550505050505060405180910390a1600860006007548152602001908152602001600020600001600081819054906101000a900461ffff168092919060010191906101000a81548161ffff021916908361ffff160217905550505050505050565b600a6020528060005260406000206000915090508060000160009054906101000a900461ffff16908060010154908060020154908060030154905084565b60006001808054905003905090565b600060086000838152602001908152602001600020600201549050919050565b611c9c61229f565b1515611ca757600080fd5b600073ffffffffffffffffffffffffffffffffffffffff166000809054906101000a900473ffffffffffffffffffffffffffffffffffffffff1673ffffffffffffffffffffffffffffffffffffffff167f8be0079c531659141344cd1fd0a4f28419497f9722a3daafe3b4186f6b6457e060405160405180910390a360008060006101000a81548173ffffffffffffffffffffffffffffffffffffffff021916908373ffffffffffffffffffffffffffffffffffffffff160217905550565b606481565b60075481565b606481565b60036020528060005260406000206000915054906101000a900473ffffffffffffffffffffffffffffffffffffffff1681565b611db161229f565b1515611dbc57600080fd5b6007548411151515611e5c576040517f08c379a00000000000000000000000000000000000000000000000000000000081526004018080602001828103825260258152602001807f526571756573746564206465706f73697420736c6f7420646f6573206e6f742081526020017f657869737400000000000000000000000000000000000000000000000000000081525060400191505060405180910390fd5b6000841480611e8557506000600860006001870381526020019081526020016000206003015414155b1515611f1f576040517f08c379a00000000000000000000000000000000000000000000000000000000081526004018080602001828103825260228152602001807f4d757374206170706c79206465706f73697420736c6f747320696e206f72646581526020017f722100000000000000000000000000000000000000000000000000000000000081525060400191505060405180910390fd5b806008600086815260200190815260200160002060010154141515611fac576040517f08c379a000000000000000000000000000000000000000000000000000000000815260040180806020018281038252601a8152602001807f4465706f736974732068617665206265656e2072656f7267656400000000000081525060200191505060405180910390fd5b6000600860008681526020019081526020016000206003015414151561203a576040517f08c379a000000000000000000000000000000000000000000000000000000000815260040180806020018281038252601a8152602001807f4465706f7369747320616c72656164792070726f63657373656400000000000081525060200191505060405180910390fd5b6014600860008681526020019081526020016000206002015401431115156120f0576040517f08c379a00000000000000000000000000000000000000000000000000000000081526004018080602001828103825260268152602001807f526571756573746564206465706f73697420736c6f74206973207374696c6c2081526020017f616374697665000000000000000000000000000000000000000000000000000081525060400191505060405180910390fd5b8260016120fb611c65565b81548110151561210757fe5b9060005260206000200154141515612187576040517f08c379a00000000000000000000000000000000000000000000000000000000081526004018080602001828103825260148152602001807f496e636f727265637420537461746520526f6f7400000000000000000000000081525060200191505060405180910390fd5b60018290806001815401808255809150509060018203906000526020600020016000909192909190915055506121bb611c65565b60086000868152602001908152602001600020600301819055507f3226fdc3b71ca91a95959d6392681cb982b51fc63db71eafc2ad3753edff7f846000612200611c65565b84876040518085600281111561221257fe5b60ff16815260200184815260200183815260200182815260200194505050505060405180910390a150505050565b600080600860008481526020019081526020016000206003015414159050919050565b60008060009054906101000a900473ffffffffffffffffffffffffffffffffffffffff16905090565b600460009054906101000a900460ff1681565b60008060009054906101000a900473ffffffffffffffffffffffffffffffffffffffff1673ffffffffffffffffffffffffffffffffffffffff163373ffffffffffffffffffffffffffffffffffffffff1614905090565b60056020528060005260406000206000915054906101000a900460ff1681565b60026020528060005260406000206000915054906101000a900461ffff1681565b6000600a6000888152602001908152602001600020600301541115156123eb576040517f08c379a00000000000000000000000000000000000000000000000000000000081526004018080602001828103825260258152602001807f52657175657374656420736c6f7420686173206e6f74206265656e2070726f6381526020017f657373656400000000000000000000000000000000000000000000000000000081525060400191505060405180910390fd5b60011515600b60008881526020019081526020016000206001018661ffff1660648110151561241657fe5b602091828204019190069054906101000a900460ff1615151415156124c9576040517f08c379a00000000000000000000000000000000000000000000000000000000081526004018080602001828103825260278152602001807f416c726561647920636c61696d6564206f7220696e73756666696369656e742081526020017f62616c616e63650000000000000000000000000000000000000000000000000081525060400191505060405180910390fd5b60006002858585604051602001808461ffff1661ffff167e010000000000000000000000000000000000000000000000000000000000000281526002018360ff1660ff167f0100000000000000000000000000000000000000000000000000000000000000028152600101826fffffffffffffffffffffffffffffffff166fffffffffffffffffffffffffffffffff1670010000000000000000000000000000000002815260100193505050506040516020818303038152906040526040518082805190602001908083835b6020831015156125ba5780518252602082019150602081019050602083039250612595565b6001836020036101000a038019825116818451168082178552505050505050905001915050602060405180830381855afa1580156125fc573d6000803e3d6000fd5b5050506040513d602081101561261157600080fd5b810190808051906020019092919050505090506126588661ffff16600b60008a8152602001908152602001600020600001548460078561344790949392919063ffffffff16565b15156126cc576040517f08c379a000000000000000000000000000000000000000000000000000000000815260040180806020018281038252601f8152602001807f4661696c6564204d65726b6c65206d656d6265727368697020636865636b2e0081525060200191505060405180910390fd5b6000600b60008981526020019081526020016000206001018761ffff166064811015156126f557fe5b602091828204019190066101000a81548160ff021916908315150217905550600660008560ff1660ff16815260200190815260200160002060009054906101000a900473ffffffffffffffffffffffffffffffffffffffff1673ffffffffffffffffffffffffffffffffffffffff1663a9059cbb600360008861ffff1661ffff16815260200190815260200160002060009054906101000a900473ffffffffffffffffffffffffffffffffffffffff16856040518363ffffffff167c0100000000000000000000000000000000000000000000000000000000028152600401808373ffffffffffffffffffffffffffffffffffffffff1673ffffffffffffffffffffffffffffffffffffffff168152602001826fffffffffffffffffffffffffffffffff16815260200192505050602060405180830381600087803b15801561283d57600080fd5b505af1158015612851573d6000803e3d6000fd5b505050506040513d602081101561286757600080fd5b81019080805190602001909291905050505050505050505050565b6000600161288e611c65565b81548110151561289a57fe5b9060005260206000200154905090565b606481565b60008161ffff161415151561292c576040517f08c379a000000000000000000000000000000000000000000000000000000000815260040180806020018281038252601f8152602001807f4163636f756e7420696e646578206d75737420626520706f736974697665210081525060200191505060405180910390fd5b606461ffff168161ffff16111515156129ad576040517f08c379a00000000000000000000000000000000000000000000000000000000081526004018080602001828103825260198152602001807f4163636f756e7420696e6465782065786365656473206d61780000000000000081525060200191505060405180910390fd5b6000600260003373ffffffffffffffffffffffffffffffffffffffff1673ffffffffffffffffffffffffffffffffffffffff16815260200190815260200160002060009054906101000a900461ffff1661ffff16141515612a76576040517f08c379a000000000000000000000000000000000000000000000000000000000815260040180806020018281038252601d8152602001807f41646472657373206f63637570696573206163636f756e7420736c6f7400000081525060200191505060405180910390fd5b600073ffffffffffffffffffffffffffffffffffffffff16600360008361ffff1661ffff16815260200190815260200160002060009054906101000a900473ffffffffffffffffffffffffffffffffffffffff1673ffffffffffffffffffffffffffffffffffffffff16141515612b55576040517f08c379a00000000000000000000000000000000000000000000000000000000081526004018080602001828103825260158152602001807f4163636f756e7420736c6f74206f63637570696564000000000000000000000081525060200191505060405180910390fd5b80600260003373ffffffffffffffffffffffffffffffffffffffff1673ffffffffffffffffffffffffffffffffffffffff16815260200190815260200160002060006101000a81548161ffff021916908361ffff16021790555033600360008361ffff1661ffff16815260200190815260200160002060006101000a81548173ffffffffffffffffffffffffffffffffffffffff021916908373ffffffffffffffffffffffffffffffffffffffff16021790555050565b60086020528060005260406000206000915090508060000160009054906101000a900461ffff16908060010154908060020154908060030154905084565b600b6020528060005260406000206000915090508060000154908060050154905082565b612c7661229f565b1515612c8157600080fd5b6009548611151515612d21576040517f08c379a00000000000000000000000000000000000000000000000000000000081526004018080602001828103825260288152602001807f526571756573746564207769746864726177616c20736c6f7420646f6573206e81526020017f6f7420657869737400000000000000000000000000000000000000000000000081525060400191505060405180910390fd5b6000861480612d4a57506000600a60006001890381526020019081526020016000206003015414155b1515612de4576040517f08c379a00000000000000000000000000000000000000000000000000000000081526004018080602001828103825260248152602001807f50726576696f757320776974686472617720736c6f74206e6f2070726f63657381526020017f736564210000000000000000000000000000000000000000000000000000000081525060400191505060405180910390fd5b80600a600088815260200190815260200160002060010154141515612e71576040517f08c379a000000000000000000000000000000000000000000000000000000000815260040180806020018281038252601b8152602001807f5769746864726177732068617665206265656e2072656f72676564000000000081525060200191505060405180910390fd5b6000600a600088815260200190815260200160002060030154141515612eff576040517f08c379a000000000000000000000000000000000000000000000000000000000815260040180806020018281038252601b8152602001807f57697468647261777320616c72656164792070726f636573736564000000000081525060200191505060405180910390fd5b6014600a6000888152602001908152602001600020600201540143111515612fb5576040517f08c379a00000000000000000000000000000000000000000000000000000000081526004018080602001828103825260278152602001807f52657175657374656420776974686472617720736c6f74206973207374696c6c81526020017f206163746976650000000000000000000000000000000000000000000000000081525060400191505060405180910390fd5b826001612fc0611c65565b815481101515612fcc57fe5b906000526020600020015414151561304c576040517f08c379a00000000000000000000000000000000000000000000000000000000081526004018080602001828103825260148152602001807f496e636f727265637420537461746520526f6f7400000000000000000000000081525060200191505060405180910390fd5b6001829080600181540180825580915050906001820390600052602060002001600090919290919091505550613080611c65565b600a6000888152602001908152602001600020600301819055506060604051908101604052808581526020018681526020016130ba611c65565b815250600b6000888152602001908152602001600020600082015181600001556020820151816001019060646130f19291906137e1565b50604082015181600501559050507f3226fdc3b71ca91a95959d6392681cb982b51fc63db71eafc2ad3753edff7f84600161312a611c65565b84896040518085600281111561313c57fe5b60ff16815260200184815260200183815260200182815260200194505050505060405180910390a1505050505050565b61317461229f565b151561317f57600080fd5b6000600560008373ffffffffffffffffffffffffffffffffffffffff1673ffffffffffffffffffffffffffffffffffffffff16815260200190815260200160002060009054906101000a900460ff1660ff16141515613246576040517f08c379a00000000000000000000000000000000000000000000000000000000081526004018080602001828103825260198152602001807f546f6b656e20616c72656164792072656769737465726564210000000000000081525060200191505060405180910390fd5b601e60ff166001600460009054906101000a900460ff160160ff16111515156132d7576040517f08c379a000000000000000000000000000000000000000000000000000000000815260040180806020018281038252601b8152602001807f546f6b656e2069642065786365656473206d617820746f6b656e73000000000081525060200191505060405180910390fd5b6001600460009054906101000a900460ff1601600560008373ffffffffffffffffffffffffffffffffffffffff1673ffffffffffffffffffffffffffffffffffffffff16815260200190815260200160002060006101000a81548160ff021916908360ff16021790555080600660006001600460009054906101000a900460ff160160ff1660ff16815260200190815260200160002060006101000a81548173ffffffffffffffffffffffffffffffffffffffff021916908373ffffffffffffffffffffffffffffffffffffffff1602179055506004600081819054906101000a900460ff168092919060010191906101000a81548160ff021916908360ff1602179055505050565b600060086000838152602001908152602001600020600101549050919050565b61340861229f565b151561341357600080fd5b61341c816136e7565b50565b601e81565b60018181548110151561343357fe5b906000526020600020016000915090505481565b60006020820283511415156134ea576040517f08c379a000000000000000000000000000000000000000000000000000000000815260040180806020018281038252602f8152602001807f50726f6f66206c656e67746820646f6573206e6f74206167726565207769746881526020017f2068656967682070726f7669646564000000000000000000000000000000000081525060400191505060405180910390fd5b60008087905060008790506000602090505b60208602811115156136d557808701519350600060028381151561351c57fe5b0614156135f1576002838560405160200180838152602001828152602001925050506040516020818303038152906040526040518082805190602001908083835b602083101515613582578051825260208201915060208101905060208303925061355d565b6001836020036101000a038019825116818451168082178552505050505050905001915050602060405180830381855afa1580156135c4573d6000803e3d6000fd5b5050506040513d60208110156135d957600080fd5b810190808051906020019092919050505092506136bb565b6002848460405160200180838152602001828152602001925050506040516020818303038152906040526040518082805190602001908083835b602083101515613650578051825260208201915060208101905060208303925061362b565b6001836020036101000a038019825116818451168082178552505050505050905001915050602060405180830381855afa158015613692573d6000803e3d6000fd5b5050506040513d60208110156136a757600080fd5b810190808051906020019092919050505092505b6002828115156136c757fe5b0491506020810190506134fc565b50868214935050505095945050505050565b600073ffffffffffffffffffffffffffffffffffffffff168173ffffffffffffffffffffffffffffffffffffffff161415151561372357600080fd5b8073ffffffffffffffffffffffffffffffffffffffff166000809054906101000a900473ffffffffffffffffffffffffffffffffffffffff1673ffffffffffffffffffffffffffffffffffffffff167f8be0079c531659141344cd1fd0a4f28419497f9722a3daafe3b4186f6b6457e060405160405180910390a3806000806101000a81548173ffffffffffffffffffffffffffffffffffffffff021916908373ffffffffffffffffffffffffffffffffffffffff16021790555050565b826064601f016020900481019282156138695791602002820160005b8382111561383a57835183826101000a81548160ff02191690831515021790555092602001926001016020816000010492830192600103026137fd565b80156138675782816101000a81549060ff021916905560010160208160000104928301926001030261383a565b505b509050613876919061387a565b5090565b6138a791905b808211156138a357600081816101000a81549060ff021916905550600101613880565b5090565b9056fea165627a7a723058208028e29bbb8beef0e973c338ec94340861e65629b2890f0ccf49b8b296f14dc90029",
  "source": "pragma solidity ^0.5.0;\n\nimport \"openzeppelin-solidity/contracts/token/ERC20/ERC20.sol\";\nimport \"openzeppelin-solidity/contracts/ownership/Ownable.sol\";\nimport \"./Merkle.sol\";\n\n\ncontract SnappBase is Ownable {\n    using Merkle for bytes32;\n\n    uint16 public constant MAX_ACCOUNT_ID = 100;     // TODO - make larger or use uint8\n    uint8 public constant MAX_TOKENS = 30;\n    uint16 public constant MAX_DEPOSIT_BATCH = 100;  // TODO - make larger or use uint8\n    uint16 public constant MAX_WITHDRAW_BATCH = 100;\n    \n    bytes32[] public stateRoots;  // Pedersen Hash\n\n    enum TransitionType {\n        Deposit,\n        Withdraw,\n        Auction\n    }\n\n    // Account Mapping\n    mapping (address => uint16) public publicKeyToAccountMap;\n    mapping (uint16 => address) public accountToPublicKeyMap;\n\n    // Token Mapping\n    uint8 public numTokens;\n    mapping (address => uint8) public tokenAddresToIdMap;\n    mapping (uint8 => address) public tokenIdToAddressMap;\n\n    struct PendingFlux {\n        uint16 size;                   // Number of deposits in this batch\n        bytes32 shaHash;               // Rolling shaHash of all deposits\n        uint creationBlock;            // Timestamp of batch creation\n        uint appliedAccountStateIndex; // accountState index when batch applied (for rollback)\n    }\n\n    uint public depositIndex;\n    mapping (uint => PendingFlux) public deposits;\n\n    uint public withdrawIndex;\n    mapping (uint => PendingFlux) public pendingWithdraws;\n\n    struct ClaimableWithdrawState {\n        bytes32 merkleRoot;            // Merkle root of claimable withdraws in this block\n        bool[100] claimedBitmap;       // Bitmap signalling which withdraws have been claimed\n        uint appliedAccountStateIndex; // AccountState when this state was created (for rollback)\n    }\n\n    mapping (uint => ClaimableWithdrawState) public claimableWithdraws;\n\n    event WithdrawRequest(uint16 accountId, uint8 tokenId, uint128 amount, uint slot, uint16 slotIndex);\n    event Deposit(uint16 accountId, uint8 tokenId, uint128 amount, uint slot, uint16 slotIndex);\n    event StateTransition(TransitionType transitionType, uint stateIndex, bytes32 stateHash, uint slot);\n    event SnappInitialization(bytes32 stateHash, uint8 maxTokens, uint16 maxAccounts);\n\n    constructor () public {\n        // The initial state should be Pederson hash of an empty balance tree\n        bytes32 stateInit = bytes32(0);\n        stateRoots.push(stateInit);\n\n        deposits[depositIndex].creationBlock = block.number;\n        pendingWithdraws[withdrawIndex].creationBlock = block.number;\n\n        emit SnappInitialization(stateInit, MAX_TOKENS, MAX_ACCOUNT_ID);\n    }\n\n    // Public View \n    function stateIndex() public view returns (uint) {\n        return stateRoots.length - 1;\n    }\n\n    function hasDepositBeenApplied(uint index) public view returns (bool) {\n        return deposits[index].appliedAccountStateIndex != 0;\n    }\n\n    function isDepositSlotEmpty(uint index) public view returns (bool) {\n        return deposits[index].shaHash == bytes32(0);\n    }\n\n    function getCurrentStateRoot() public view returns (bytes32) {\n        return stateRoots[stateIndex()];\n    }\n\n    // Modifiers\n    modifier onlyRegistered() {\n        require(publicKeyToAccountMap[msg.sender] != 0, \"Must have registered account\");\n        _;\n    }\n\n    function openAccount(uint16 accountId) public {\n        require(accountId != 0, \"Account index must be positive!\");\n        require(accountId <= MAX_ACCOUNT_ID, \"Account index exceeds max\");\n\n        // Ensure bijectivity of this maps (i.e. address can't occupy > 1 slots)\n        require(publicKeyToAccountMap[msg.sender] == 0, \"Address occupies account slot\");\n        require(accountToPublicKeyMap[accountId] == address(0), \"Account slot occupied\");\n\n        publicKeyToAccountMap[msg.sender] = accountId;\n        accountToPublicKeyMap[accountId] = msg.sender;\n    }\n\n    function addToken(address _tokenAddress) public onlyOwner() {\n        require(tokenAddresToIdMap[_tokenAddress] == 0, \"Token already registered!\");\n        require(numTokens + 1 <= MAX_TOKENS, \"Token id exceeds max tokens\");\n\n        tokenAddresToIdMap[_tokenAddress] = numTokens + 1;\n        tokenIdToAddressMap[numTokens + 1] = _tokenAddress;\n\n        numTokens++;\n    }\n\n    function deposit(uint8 tokenId, uint128 amount) public onlyRegistered() {\n        require(amount != 0, \"Must deposit positive amount\");\n\n        address tokenAddress = tokenIdToAddressMap[tokenId];\n        require(tokenAddress != address(0), \"Requested token is not registered\");\n        require(\n            ERC20(tokenAddress).transferFrom(msg.sender, address(this), amount), \n            \"Unsuccessful transfer\"\n        );\n\n        if (deposits[depositIndex].size == MAX_DEPOSIT_BATCH || block.number > deposits[depositIndex].creationBlock + 20) {\n            depositIndex++;\n            deposits[depositIndex] = PendingFlux({\n                size: 0,\n                shaHash: bytes32(0),\n                creationBlock: block.number,\n                appliedAccountStateIndex: 0   // Default 0 implies not applied.\n            });\n        }\n\n        // Update Deposit Hash based on request\n        uint16 accountId = publicKeyToAccountMap[msg.sender];\n        bytes32 nextDepositHash = sha256(\n            abi.encodePacked(deposits[depositIndex].shaHash, accountId, tokenId, amount)\n        );\n        deposits[depositIndex].shaHash = nextDepositHash;\n\n        emit Deposit(accountId, tokenId, amount, depositIndex, deposits[depositIndex].size);\n        // Only increment size after event (so it is emitted as an index)\n        deposits[depositIndex].size++;\n    }\n\n    function applyDeposits(\n        uint slot,\n        bytes32 _currStateRoot,\n        bytes32 _newStateRoot,\n        bytes32 _depositHash\n    )\n        public onlyOwner()\n    {   \n        require(slot <= depositIndex, \"Requested deposit slot does not exist\");\n        require(slot == 0 || deposits[slot-1].appliedAccountStateIndex != 0, \"Must apply deposit slots in order!\");\n        require(deposits[slot].shaHash == _depositHash, \"Deposits have been reorged\");\n        require(deposits[slot].appliedAccountStateIndex == 0, \"Deposits already processed\");\n        require(block.number > deposits[slot].creationBlock + 20, \"Requested deposit slot is still active\");\n        require(stateRoots[stateIndex()] == _currStateRoot, \"Incorrect State Root\");\n\n        // Note that the only slot that can ever be empty is the first (at index zero) \n        // This occurs when no deposits are made within the first 20 blocks of the contract's deployment\n        // This code allows for the processing of the empty block and since it will only happen once\n        // No, additional verificaiton is necessary.  \n\n        stateRoots.push(_newStateRoot);        \n        deposits[slot].appliedAccountStateIndex = stateIndex();\n\n        emit StateTransition(TransitionType.Deposit, stateIndex(), _newStateRoot, slot);\n    }\n\n    function requestWithdrawal(uint8 tokenId, uint128 amount) public onlyRegistered() {\n        require(amount != 0, \"Must request positive amount\");\n\n        address tokenAddress = tokenIdToAddressMap[tokenId];\n        require(tokenAddress != address(0), \"Requested token is not registered\");\n        require(\n            ERC20(tokenAddress).balanceOf(address(this)) >= amount,\n            \"Requested amount exceeds contract's balance\"\n        );\n\n        // Determine or construct correct current withdraw state.\n        // This is governed by MAX_WITHDRAW_BATCH and creationBlock\n        if (\n            pendingWithdraws[withdrawIndex].size == MAX_WITHDRAW_BATCH || \n            block.number > pendingWithdraws[withdrawIndex].creationBlock + 20\n        ) {\n            withdrawIndex++;\n            pendingWithdraws[withdrawIndex] = PendingFlux({\n                size: 0,\n                shaHash: bytes32(0),\n                creationBlock: block.number,\n                appliedAccountStateIndex: 0\n            });\n        }\n\n        // Update Withdraw Hash based on request\n        uint16 accountId = publicKeyToAccountMap[msg.sender];\n        bytes32 nextWithdrawHash = sha256(\n            abi.encodePacked(pendingWithdraws[withdrawIndex].shaHash, accountId, tokenId, amount)\n        );\n\n        pendingWithdraws[withdrawIndex].shaHash = nextWithdrawHash;\n\n        emit WithdrawRequest(accountId, tokenId, amount, withdrawIndex, pendingWithdraws[withdrawIndex].size);\n        // Only increment size after event (so it is emitted as an index)\n        pendingWithdraws[withdrawIndex].size++;\n    }\n\n    function applyWithdrawals(\n        uint slot,\n        bool[100] memory includedBitMap,\n        bytes32 _merkleRoot,\n        bytes32 _currStateRoot,\n        bytes32 _newStateRoot,\n        bytes32 _withdrawHash\n    )\n        public onlyOwner()\n    {\n        require(slot <= withdrawIndex, \"Requested withdrawal slot does not exist\");\n        require(\n            slot == 0 || pendingWithdraws[slot-1].appliedAccountStateIndex != 0, \n            \"Previous withdraw slot no processed!\"\n        );\n        require(pendingWithdraws[slot].shaHash == _withdrawHash, \"Withdraws have been reorged\");\n        require(pendingWithdraws[slot].appliedAccountStateIndex == 0, \"Withdraws already processed\");\n        require(block.number > pendingWithdraws[slot].creationBlock + 20, \"Requested withdraw slot is still active\");\n        require(stateRoots[stateIndex()] == _currStateRoot, \"Incorrect State Root\");\n\n        // Update account states\n        stateRoots.push(_newStateRoot);\n        pendingWithdraws[slot].appliedAccountStateIndex = stateIndex();\n        \n        claimableWithdraws[slot] = ClaimableWithdrawState({\n            merkleRoot: _merkleRoot,\n            claimedBitmap: includedBitMap,\n            appliedAccountStateIndex: stateIndex()\n        });\n\n        emit StateTransition(TransitionType.Withdraw, stateIndex(), _newStateRoot, slot);\n    }\n\n    function claimWithdrawal(\n        uint withdrawSlot,\n        uint16 inclusionIndex,\n        uint16 accountId,\n        uint8 tokenId,\n        uint128 amount,\n        bytes memory proof\n    ) public {\n        // No need to check tokenId or accountId (wouldn't pass merkle proof if unregistered).\n        require(\n            pendingWithdraws[withdrawSlot].appliedAccountStateIndex > 0,\n            \"Requested slot has not been processed\"\n        );\n        require(\n            claimableWithdraws[withdrawSlot].claimedBitmap[inclusionIndex] == true,\n            \"Already claimed or insufficient balance\"\n        );\n        \n        bytes32 leaf = sha256(abi.encodePacked(accountId, tokenId, amount));\n        require(\n            leaf.checkMembership(inclusionIndex, claimableWithdraws[withdrawSlot].merkleRoot, proof, 7),\n            \"Failed Merkle membership check.\"\n        );\n        \n        // Set claim bitmap to false (indicating that funds have been claimed).\n        claimableWithdraws[withdrawSlot].claimedBitmap[inclusionIndex] = false;\n        // There is no situation where contract balance can't afford the upcomming transfer.\n        ERC20(tokenIdToAddressMap[tokenId]).transfer(accountToPublicKeyMap[accountId], amount);\n    }\n\n    function getDepositCreationBlock(uint slot) public view returns (uint) {\n        return deposits[slot].creationBlock;\n    }\n\n    function getDepositHash(uint slot) public view returns (bytes32) {\n        return deposits[slot].shaHash;\n    }\n\n}\n",
  "sourcePath": "/home/josojo/gnosis/dex-contracts/contracts/SnappBase.sol",
  "compiler": {
    "name": "solc",
    "version": "0.5.0+commit.1d4f565a.Emscripten.clang"
  },
  "schemaVersion": "3.0.1",
  "updatedAt": "2019-01-30T21:27:19.893Z",
  "devdoc": {
    "methods": {
      "isOwner()": {
        "return": "true if `msg.sender` is the owner of the contract."
      },
      "owner()": {
        "return": "the address of the owner."
      },
      "renounceOwnership()": {
        "details": "Allows the current owner to relinquish control of the contract."
      },
      "transferOwnership(address)": {
        "details": "Allows the current owner to transfer control of the contract to a newOwner.",
        "params": {
          "newOwner": "The address to transfer ownership to."
        }
      }
    }
  },
  "userdoc": {
    "methods": {
      "renounceOwnership()": {
        "notice": "Renouncing to ownership will leave the contract without an owner. It will not be possible to call the functions with the `onlyOwner` modifier anymore."
      }
    }
  }
}